:020000040000FA
:100000000C94E0000C9408010C9408010C94E50693
:100010000C94E5060C94E5060C9408010C94080178
:100020000C9408010C9408010C9408010C9408012C
:100030000C9408010C9408010C9408010C9408011C
:100040000C949B060C9408010C9469060C944306CE
:100050000C9408010C9408010C9408010C940801FC
:100060000C9408010C94080100407A10F35A00A087
:10007000724E18090010A5D4E80000E87648170071
:1000800000E40B54020000CA9A3B000000E1F505B1
:10009000000080969800000040420F000000A086FB
:1000A00001000000102700000000E803000000002D
:1000B0006400000000000A000000000001000000D1
:1000C00000002C76D888DC674F0823DFC1DFAE59EB
:1000D000E1B1B796E5E3E453C63AE651997696E87E
:1000E000E6C28426EB898C9B62ED407C6FFCEFBC02
:1000F0009C9F40F2BAA56FA5F490055A2AF75C932D
:100100006B6CF9676DC11BFCE0E40D47FEF520E662
:10011000B500D0ED902E0300943577050080841E45
:10012000080000204E0A000000C80C333333330FA0
:10013000986E12831141EF8D2114893BE65516CF3D
:10014000FEE6DB18D1844B381BF77C1D901DA4BB49
:10015000E424203284725E228100C9F124ECA1E5FE
:100160003D2700000000240027002A0000000008AE
:10017000000201000003040700000000000000006E
:1001800000000000230026002900000000002500D8
:1001900028002B00040404040404040402020202E4
:1001A000020203030303030301020408102040803A
:1001B0000102040810200102040810205D071F0B33
:1001C00011241FBECFEFD8E0DEBFCDBF22E0A2EBEF
:1001D000B1E001C01D92AE3DB207E1F711E0A0E031
:1001E000B1E0ECE2F2E202C005900D92A23BB10751
:1001F000D9F710E0CFEDD0E004C02197FE010E94B6
:10020000110FCE3DD107C9F70E943C080C9409118B
:100210000C94000080E480937C0080917A008064DC
:1002200080937A0080917A0086FDFCCF80917800DF
:10023000909179000895AF92BF92CF92DF92EF92A2
:10024000FF920F931F93CF93DF936C017B018B0180
:10025000040F151FEB015E01AE18BF08C017D107D0
:1002600059F06991D601ED91FC910190F081E02D5A
:10027000C6010995892B79F7C501DF91CF911F91AF
:100280000F91FF90EF90DF90CF90BF90AF900895C7
:10029000FC01538D448D252F30E0842F90E0821B8C
:1002A000930B541710F0CF96089501970895FC0111
:1002B000918D828D981761F0A28DAE0FBF2FB11D69
:1002C0005D968C91928D9F5F9F73928F90E00895C1
:1002D0008FEF9FEF0895FC01918D828D981731F07B
:1002E000828DE80FF11D858D90E008958FEF9FEFCF
:1002F0000895FC01918D228D892F90E0805C9F4FA5
:10030000821B91098F739927089586E092E00E94DD
:10031000790121E0892B09F420E0822F089580E003
:1003200090E0892B29F00E94850181110C94000036
:100330000895FC01A48DA80FB92FB11DA35ABF4F7A
:100340002C91848D90E001968F739927848FA689D4
:10035000B7892C93A089B1898C91837080648C9328
:10036000938D848D981306C00288F389E02D8081D7
:100370008F7D80830895EF92FF920F931F93CF9309
:10038000DF93EC0181E0888F9B8D8C8D98131AC0D0
:10039000E889F989808185FF15C09FB7F894EE89B7
:1003A000FF896083E889F989808183708064808314
:1003B0009FBF81E090E0DF91CF911F910F91FF905F
:1003C000EF900895F62E0B8D10E00F5F1F4F0F7307
:1003D0001127E02E8C8D8E110CC00FB607FCFACFC2
:1003E000E889F989808185FFF5CFCE010E949901C6
:1003F000F1CFEB8DEC0FFD2FF11DE35AFF4FF08293
:100400009FB7F8940B8FEA89FB8980818062CFCFF8
:10041000CF93DF93EC01888D8823B9F0AA89BB893B
:10042000E889F9898C9185FD03C0808186FD0DC026
:100430000FB607FCF7CF8C9185FFF2CF808185FF47
:10044000EDCFCE010E949901E9CFDF91CF910895C0
:10045000833081F028F4813099F08230A9F008953A
:100460008730A9F08830C9F08430B1F480918000E1
:100470008F7D03C0809180008F77809380000895E6
:1004800084B58F7784BD089584B58F7DFBCF80912F
:10049000B0008F778093B00008958091B0008F7D79
:1004A000F9CF1F93CF93DF93282F30E0F901E45960
:1004B000FE4F8491F901E855FE4FD491F901EC56B5
:1004C000FE4FC491CC23A9F0162F81110E9428025F
:1004D000EC2FF0E0EE0FFF1FE657FE4FA591B49111
:1004E0008FB7F894EC91111108C0D095DE23DC93FE
:1004F0008FBFDF91CF911F910895DE2BF8CFCF935F
:10050000DF9390E0FC01E855FE4F24918C569E4FFE
:10051000FC0184918823C9F090E0880F991FFC01A9
:10052000EE59FE4FA591B491FC01E657FE4FC591DF
:10053000D49161110DC09FB7F8948C9120958223BE
:100540008C938881282328839FBFDF91CF910895C2
:10055000623051F49FB7F8943C91822F80958323A9
:100560008C93E8812E2BEFCF8FB7F894EC912E2B44
:100570002C938FBFEACF3FB7F8948091F701909109
:10058000F801A091F901B091FA0126B5A89B05C028
:100590002F3F19F00196A11DB11D3FBFBA2FA92F02
:1005A000982F8827BC01CD01620F711D811D911DFF
:1005B00042E0660F771F881F991F4A95D1F708956B
:1005C0008F929F92AF92BF92CF92DF92EF92FF9263
:1005D0004B015C010E94BB026B017C010E94BB02CB
:1005E0006C197D098E099F09683E7340810591054C
:1005F000A8F321E0821A9108A108B10888EEC80E7C
:1006000083E0D81EE11CF11C81149104A104B10403
:1006100029F7FF90EF90DF90CF90BF90AF909F9021
:100620008F9008952091FD013091FE012817390720
:1006300071F49091FB018091FC01981741F0E091D9
:10064000FB01F0E0EE54FE4F808190E008958FEFC3
:100650009FEF08950895EF92FF920F931F93CF930A
:10066000DF93DC015C96ED90FC905D97E114F10462
:1006700079F481E090E013969C938E93129790E02A
:1006800080E0DF91CF911F910F91FF90EF9008953F
:100690005196ED91FC91529750968C915097982FCE
:1006A00090950FB75E962C915E97122F127021FDD8
:1006B0006095F8942081112319F1282B2083E701FC
:1006C0002197F1F728E0462F50E0308160FF1AC0F3
:1006D000382B3083E7012197F1F7BA0175956795BB
:1006E000215089F7112381F08081892380830FBFF6
:1006F0005C968D919C910197F1F781E090E0C1CFDC
:100700002923DCCF3923E5CF9081892BEFCF2091AE
:10071000FD013091FE012817390771F48091FC0129
:100720002091FB0190E0805C9F4F821B910960E467
:1007300070E00E94C70E089590E080E00895209137
:10074000FD013091FE0128173907B9F49091FB01A2
:100750008091FC01981789F0E091FB01F0E0EE54E4
:10076000FE4F80812091FB0130E02F5F3F4F2F73C0
:1007700033272093FB0190E008958FEF9FEF0895BA
:10078000089590E080E00895CF93DF93EC0160E05E
:100790008E810E94510261E08E810E94510260E0D0
:1007A0008E810E9451028BE891E00197F1F7DF9171
:1007B000CF910895CF92DF92EF92FF920F931F9304
:1007C000CF93DF936C017C0187E0E80EF11CD0E051
:1007D000C0E0062F10E0B8010C2E02C07595679599
:1007E0000A94E2F76170F70181917F010E94510242
:1007F0002196C430D10579F7C601DF91CF911F91C1
:100800000F91FF90EF90DF90CF900C94C403CF92A4
:10081000DF92EF92FF920F931F93CF93DF93EC0140
:10082000F62E642F8C810E9451028D818F3F19F02A
:1008300060E00E9451020F2D10E08F8584FF25C0DB
:100840006E0187E0C80ED11CF12CE12CB8010E2CF2
:1008500002C0759567950A94E2F76170F60181917F
:100860006F010E945102FFEFEF1AFF0A88E0E816BD
:10087000F10461F7CE01DF91CF911F910F91FF90AD
:10088000EF90DF90CF900C94C403B80184E075958D
:1008900067958A95E1F7CE010E94DA036F2DCE01AC
:1008A000DF91CF911F910F91FF90EF90DF90CF904C
:1008B0000C94DA0340E0682F82EC92E00C94070479
:1008C000CF93DF93823029F49091D1029860909376
:1008D000D1028093D5021092D60280E48093D70291
:1008E00080E18093D80280E58093D90261E0809115
:1008F000C6020E947F028091C7028F3F19F061E01B
:100900000E947F0261E08091C8020E947F02C2ECD7
:10091000D2E09E01225C32408091D10284FD0BC066
:1009200084E090E021962817390744F461E08E8135
:100930000E947F02EECF88E090E0F4CF8BE39DE051
:100940000197F1F760E08091C6020E94510260E0D9
:100950008091C8020E9451028091C7028F3F19F016
:1009600060E00E9451028091D10284FD39C063E0B1
:1009700082EC92E00E94DA03CBE4D6E4CE01019748
:10098000F1F763E082EC92E00E94DA032197F1F73D
:1009900063E082EC92E00E94DA0383E592E0019743
:1009A000F1F762E082EC92E00E94DA038091D102DA
:1009B00080620E945A0484E08093D2028CE00E94FC
:1009C0005A0481E00E945A048BE39FE10197F1F7FA
:1009D00082E08093D30286E0DF91CF910C945A0499
:1009E00080620E945A048BE496E40197F1F78091AB
:1009F000D10280620E945A0483E592E00197F1F7E8
:100A00008091D10280620E945A04D0CF41E00E94BE
:100A1000070481E090E00895FB0101900020E9F7D0
:100A20003197AF01461B570BDC01ED91FC91028021
:100A3000F381E02D0994CF93DF93BC0186E092E02F
:100A40000E940C05EC0166E371E086E092E00E94F2
:100A50000C058C0F9D1FDF91CF9108950F931F936D
:100A6000CF93DF93EC0188819981009759F02A8117
:100A70003B812617370730F081E0DF91CF911F913E
:100A80000F9108958B016F5F7F4F0E943C1000977C
:100A900059F0998388831B830A832C813D81232B02
:100AA00059F7FC011082E8CF80E0E7CFEF92FF9288
:100AB0000F931F93CF93DF936115710541F480E08D
:100AC000DF91CF911F910F91FF90EF900895411505
:100AD0005105B1F07B01EC010C811D81040F151F44
:100AE000B8010E942E05882351F3288139818C8119
:100AF0009D81B701820F931F0E9402111D830C83F9
:100B000081E0DECFCF93DF93EC018881998100975C
:100B100011F00E94B30F198218821D821C821B8261
:100B20001A82DF91CF910895EF92FF920F931F9356
:100B3000CF93DF93EC017B01198218821B821A820A
:100B40001D821C82FB0101900020E9F731978F0183
:100B5000061B170BB8010E942E05811109C0CE019A
:100B6000DF91CF911F910F91FF90EF900C94820530
:100B70001D830C83B70188819981DF91CF911F91EB
:100B80000F91FF90EF900C940211CF92DF92EF92B1
:100B9000FF920F931F93CF93DF93CDB7DEB7A1974B
:100BA0000FB6F894DEBF0FBECDBF7C01CB01BA01FA
:100BB000F7011182108213821282158214828E0133
:100BC0000F5F1F4F22E044E00E943B0B6C01009737
:100BD00071F0FC0101900020E9F731978F01081BAB
:100BE000190BB801C7010E942E05811112C0C7015F
:100BF0000E948205A1960FB6F894DEBF0FBECDBF4E
:100C0000DF91CF911F910F91FF90EF90DF90CF90E8
:100C10000895F70115830483B601808191810E94B4
:100C20000211E8CFCF93DF93EC01FB01019000208C
:100C3000E9F73197AF01461B570B0E94560581110A
:100C400003C0CE010E948205CE01DF91CF910895AD
:100C5000CF93DF93EC01FB01448155816081718169
:100C60000E945605811103C0CE010E948205CE016B
:100C7000DF91CF910895FC0180819181009711F05F
:100C80000C94B30F08951F920F920FB60F92112478
:100C90002F933F934F935F936F937F938F939F9384
:100CA000AF93BF93EF93FF9386E092E00E94990188
:100CB000FF91EF91BF91AF919F918F917F916F9134
:100CC0005F914F913F912F910F900FBE0F901F900A
:100CD00018951F920F920FB60F9211242F938F9396
:100CE0009F93EF93FF93E0911602F091170280819A
:100CF000E0911C02F0911D0282FD1BC09081809149
:100D00001F028F5F8F7320912002821741F0E091C4
:100D10001F02F0E0EA5FFD4F958F80931F02FF9165
:100D2000EF919F918F912F910F900FBE0F901F9079
:100D300018958081F4CF1F920F920FB60F92112455
:100D40002F933F938F939F93AF93BF938091F30122
:100D50009091F401A091F501B091F6013091F2016A
:100D600023E0230F2D3758F50196A11DB11D2093C7
:100D7000F2018093F3019093F401A093F501B093F5
:100D8000F6018091F7019091F801A091F901B091DD
:100D9000FA010196A11DB11D8093F7019093F8010E
:100DA000A093F901B093FA01BF91AF919F918F91F8
:100DB0003F912F910F900FBE0F901F90189526E82E
:100DC000230F0296A11DB11DD2CF1F920F920FB615
:100DD0000F9211242F933F934F935F936F937F93C1
:100DE0008F939F93AF93BF93EF93FF93E091FD0198
:100DF000F091FE01309749F0A685B7858585968DDF
:100E000091FF14C09C918923A1F4FF91EF91BF91B0
:100E1000AF919F918F917F916F915F914F913F9192
:100E20002F910F900FBE0F901F9018959C918923C2
:100E300061F7A389B4899C918589809589238C93D6
:100E4000868997890197F1F7608D718DA685B785A1
:100E5000558538E020E0CB010197F1F7822F90E033
:100E600095958795282F4C91452309F0206831509E
:100E700091F7868D81FD20958091FC0190E001968F
:100E80008F7399273091FB01381799F0A091FC01DD
:100E9000B0E0AE54BE4F2C938093FC01828D938DB5
:100EA0000197F1F7A389B4898C919589892B8C934B
:100EB000ACCF868D8160868FF1CFCF92DF92EF929B
:100EC000FF92109209021092080298EEC92E93E048
:100ED000D92EE12CF12CC0920A02D0920B02E092A2
:100EE0000C02F0920D028AE091E090930702809349
:100EF000060285EC90E0909313028093120284EC3A
:100F000090E0909315028093140280EC90E090930F
:100F100017028093160281EC90E09093190280935F
:100F2000180282EC90E090931B0280931A0286ECE8
:100F300090E090931D0280931C0210921F02109269
:100F4000200210922102109222021092C5021092E9
:100F5000C4028EE291E09093C3028093C2028DE0BE
:100F60008093C6028FEF8093C7028CE08093C80203
:100F70008BE08093C9028AE08093CA0289E0809363
:100F8000CB0288E08093CC021092CD021092CE0268
:100F90001092CF021092D0021092D10281E00E94F2
:100FA00060041092A6021092A502C092A702D092ED
:100FB000A802E092A902F092AA028CE191E090933B
:100FC000A4028093A3021092BA021092B902109266
:100FD000BC021092BB021092BE021092BD0210928F
:100FE000C0021092BF026091C1026E7F6D7F60935C
:100FF000C1026695617081E068270E94510261E03C
:1010000081E00E947F02E9EAF1E0E491E093B3021B
:10101000E5E9F1E0E491F0E0EE0FFF1FE657FE4F47
:10102000859194919093B5028093B40260E080E042
:101030000E947F028091C10281FD04C061E080E0D6
:101040000E9451021092AF02E8EAF1E0E491E093CD
:10105000B002E4E9F1E0E491F0E0EE0FFF1FE058A8
:10106000FE4F859194919093B2028093B102FF90CC
:10107000EF90DF90CF900895CF93DF93CDB7DEB799
:10108000A7970FB6F894DEBF0FBECDBF789484B596
:10109000826084BD84B5816084BD85B5826085BD74
:1010A00085B5816085BD80916E00816080936E0002
:1010B00010928100809181008260809381008091F4
:1010C00081008160809381008091800081608093A5
:1010D00080008091B10084608093B1008091B00065
:1010E00081608093B00080917A00846080937A0060
:1010F00080917A00826080937A0080917A0081608A
:1011000080937A0080917A00806880937A001092B0
:10111000C10082E00E94600460E08EE00E947F02D5
:1011200062E086E00E947F0261E087E00E947F0229
:101130001092BE021092BD021092BC021092BB022D
:101140001092BA021092B9028DE991E09093C00218
:101150008093BF029091AF02963108F047C02DEB0B
:1011600030E03093BA022093B9022BE931E030939A
:10117000BC022093BB022CE231E03093BE022093EC
:10118000BD022091680084E0983048F031E09E3044
:1011900008F430E081E001C0880F3A95EAF7822B2D
:1011A000809368002DE630E0983050F02BE630E078
:1011B0009E3030F02CE630E0963110F030E020E048
:1011C0003093B7022093B602292F30E0983008F010
:1011D00005C281E001C0880F9A95EAF78093B802B2
:1011E0008091BF029091C0020197F1F78091BD02FA
:1011F0009091BE02892B49F1E091FD01F091FE0131
:1012000022E0E33AF20709F1309739F0A389B48973
:101210009C918589809589238C938091C1028E7FD2
:101220008093C1021092FC011092FB0183EA92E0CC
:101230009093FE018093FD01E091B602F091B70218
:1012400080819091B802892B8083E0911602F09101
:10125000170282E08083E0911202F0911302108263
:10126000E0911402F09115028FEC808310921E021F
:10127000E0911A02F0911B0286E08083E09118024F
:10128000F0911902808180618083E0911802F091D1
:101290001902808188608083E0911802F091190220
:1012A000808180688083E0911802F091190280812A
:1012B0008F7D808368EE73E080E090E00E94E00222
:1012C000109200021092FF0110920102109202028D
:1012D0001092030210920402109205029AE0492E25
:1012E000512C612C712C22E7822E21E0922E30E0CD
:1012F000A32E30E0B32E33243394E1E08091D50265
:101300008111E0E0E195F0E0EE53FD4F84898068C3
:101310000E945A0469E371E082EC92E00E940C059D
:10132000E091D502E23008F066C1E150F0E0EE5302
:10133000FD4F848980680E945A04409102025091B6
:1013400003026091040270910502CE0101960E9491
:10135000C50562E471E0CE0182960E949405BE014B
:101360006F5F7F4FCE0182960E9428066BE471E08A
:101370000E941206FC01448155816081718182ECDA
:1013800092E00E941B01CE0182960E943B06CE0194
:1013900001960E943B060E940A01853F91400CF491
:1013A0002CC180910102811128C161E087E00E9477
:1013B0005102E1E08091D5028111E0E0E195F0E099
:1013C000EE53FD4F8489865F80680E945A04209105
:1013D000FF01309100022F5F3F4F309300022093B6
:1013E000FF016901F12CE12CC701B9010E94900DA8
:1013F00020E030E040E450E40E94550E6093020289
:10140000709303028093040290930502A701960152
:1014100019A28E010F5D1F4FCA01B901A3019201EC
:101420000E94DB0E605DF80162938F01211531058A
:101430004105510589F7309729F0BF0182EC92E010
:101440000E940C0530920102F4018491EEEAF1E071
:101450001491EAE9F1E004910111E1C08FE491E017
:101460000E941B0568EC70E080E090E00E94E002C2
:10147000C0900202D0900302E0900402F0900502B6
:101480008EE591E00E941B056DE671E083EA92E033
:101490000E940C0564E670E080E090E00E94E002AB
:1014A00068E771E083EA92E00E940C0564EF71E066
:1014B00080E090E00E94E002B701A601CE01019613
:1014C0000E94C50561E971E0CE0182960E949405F3
:1014D000BE016F5F7F4FCE0182960E94280663EAAD
:1014E00071E00E941206FC01448155816081718186
:1014F00083EA92E00E941B01CE0182960E943B0685
:10150000CE0101960E943B06B701A601CE010196CD
:101510000E94C50561E971E0CE0182960E949405A2
:10152000BE016F5F7F4FCE0182960E94280663EA5C
:1015300071E00E941206FC01448155816081718135
:1015400086E092E00E941B0166E371E086E092E093
:101550000E940C05CE0182960E943B06CE010196A8
:101560000E943B0664EF71E080E090E00E94E002A0
:101570006AE183EA92E00E942B0364EF71E080E06D
:1015800090E00E94E00266E371E083EA92E00E944C
:101590000C0587EA91E00E941B0564EF71E080E092
:1015A00090E00E94E00283EA92E00E948703892B88
:1015B00049F083EA92E00E949F03682F86E092E060
:1015C0000E94BB01A114B10409F497CE0E948501C9
:1015D000882309F492CE0E9400008FCE9E3040F402
:1015E0002850310981E001C0880F2A95EAF7F6CD2D
:1015F0002E503109F7CFE1E099CE0E940A01843FD5
:1016000091400CF021CF80910102882309F41CCF76
:1016100060E087E00E9451021092010215CF811113
:101620000E942802E02FF0E0EE0FFF1FE058FE4F6F
:10163000A591B4918C91182309F410CFB4CF8CE10B
:1016400091E09093A4028093A3028091FD01909178
:10165000FE01835A924071F4E091B602F091B70214
:1016600090818091B8028095892380831092FE0139
:101670001092FD010895EF920F931F93CF93DF9384
:10168000E80134E047FD34E1042E000C550B57FF10
:1016900003C0519541955109E32E022F242FAE012D
:1016A0000E94590BCE01DF91CF911F910F91EF90C6
:1016B0000895A9E0B0E0EFE5FBE00C94240E6A0188
:1016C000F22EB02E102FFBE3AF2EA01608F41BE372
:1016D0001F5F012F27E0AE014F5F5F4F0E94B80CE4
:1016E000BC018981982F9970913009F43FC09BE229
:1016F000E1FC04C09E2D9170E0FC3AC05E2D50715B
:10170000E82FE87083FF46C084E0911101C083E0B8
:10171000EF2DE81B8F1508F0E0E0D6018E2F20E2B8
:10172000552351F1992329F0D6019C93C6010196C6
:101730006C0196012D5F3F4FE2FE24C08EE4D6017E
:101740008C9391E411969C93119712968C93D901E6
:101750008E2F90E281111BC0E20FF32FF11D10823A
:101760008EEF9FEF2996ECE00C94400E9DE2C6CFE1
:1017700090E2C4CF2D9381508111FCCFCE0ED11CAD
:10178000E0E0D0CF8EE6D6018C9391E6DBCF9D933F
:101790008150E0CF482F447082FF3DC084E091111A
:1017A00001C083E08F1510F4EF2DE81BD6018E2FBA
:1017B00020E2552309F1992329F0D6019C93C60113
:1017C00001966C0196012D5F3F4FE2FE1BC089E43C
:1017D000D6018C938EE411968C93119786E4129621
:1017E0008C93D9018E2F90E2882309F4B5CF9D9375
:1017F0008150FACF2D9381508111FCCFCE0ED11C98
:10180000E0E0D9CF89E6D6018C938EE611968C93D1
:10181000119786E6E4CF9B0177FF02C030E020E01D
:10182000A1E0B0E0911102C0B0E0A0E0F901319672
:10183000AE0FBF1F8B2C912CBB2009F461C054014B
:10184000EFEFAE1ABE0AAA0DBB1DFA161B0619F061
:1018500014F04F2D4A1B511188C0E3FC59C076018A
:10186000A42FB0E2A1114FC0C40ED11C992309F4DA
:101870005BC040E0D6011196F60190836D015523BF
:1018800009F448C0012F060F9A81582F507184FF28
:1018900003C0913309F4015010160CF047C0093011
:1018A00008F008E0EEE2FE2E5B01A01AB108850107
:1018B0009194819491082F3F320729F4D601FC922C
:1018C000F60131966F016217730794F1021713073F
:1018D0007CF5DB01A21BB30BAA24A394B12CAC0EA4
:1018E000BD1EAA0DBB1D11968C9121503109D60148
:1018F000119628153905F4F0F60180836D01DBCFD0
:10190000B12CA12CA0CFF701B1937F01A150AACF98
:101910009111B0CFD601942F50E302C05D93915046
:101920009111FCCFC40ED11C40E0ACCF01E0BACF86
:1019300080E3DBCF6217730731F4963388F4953375
:1019400011F4552369F0F6018083FD01842F90E2A4
:10195000811108C0A40FB11D1C9290E080E002CF5D
:1019600081E3F1CF91938150F3CF911183CF8ACF4F
:10197000283008F027E03327DA01990F311D87FD61
:10198000916000966105710539F432602E5F3D93D8
:1019900030E32A95E1F708959F3F30F080387105D4
:1019A000610509F03C5F3C5F3D93913008F0806831
:1019B000911DDF93CF931F930F93FF92EF92192FF7
:1019C000987F9695E92F96959695E90FFF27EE5308
:1019D000FF4F99273327EE24FF24A701E701059045
:1019E0000894079428F4360FE71EF81E491F511D6E
:1019F000660F771F881F991F0694A1F7059007941B
:101A000028F4E70EF81E491F561FC11D770F881FC7
:101A1000991F661F0694A1F70590079428F4F80E05
:101A2000491F561FC71FD11D880F991F661F771F9B
:101A30000694A1F70590079420F4490F561FC71F7D
:101A4000D81F990F661F771F881F0694A9F78491E6
:101A50001095177041F0D695C79557954795F7940F
:101A6000E7941A95C1F7E8E6F0E0689415901591AF
:101A700035916591959105907FE27395E118F10A92
:101A8000430B560BC90BD009C0F7E10CF11E431FE5
:101A9000561FC91FD01D7EF4703311F48A95E6CF0E
:101AA000E894015030F0080F0AF40027021708F4F8
:101AB000202F2395022F7A3328F079E37D932A95FE
:101AC000E9F710C07D932A9589F606949795679556
:101AD000379517951794E118F10A430B560BC90B6C
:101AE000D00998F023957E9173957A3308F070E3CE
:101AF0007C932013B8F77E9170617D9330F08395CD
:101B000071E37D9370E32A95E1F71124EF90FF9044
:101B10000F911F91CF91DF91992787FD909508959F
:101B2000E89409C097FB3EF4909580957095619577
:101B30007F4F8F4F9F4F9923A9F0F92F96E9BB272D
:101B40009395F695879577956795B795F111F8CFA9
:101B5000FAF4BB0F11F460FF1BC06F5F7F4F8F4F14
:101B60009F4F16C0882311F096E911C0772321F00A
:101B70009EE8872F762F05C0662371F096E8862FA2
:101B800070E060E02AF09A95660F771F881FDAF7F9
:101B9000880F9695879597F9089597F99F6780E83C
:101BA00070E060E008959FEF80EC089500240A94AF
:101BB0001616170618060906089500240A94121628
:101BC0001306140605060895092E0394000C11F45B
:101BD000882352F0BB0F40F4BF2B11F460FF04C008
:101BE0006F5F7F4F8F4F9F4F089557FD9058440F61
:101BF000551F59F05F3F71F04795880F97FB991F6C
:101C000061F09F3F79F08795089512161306140628
:101C1000551FF2CF4695F1DF08C0161617061806B5
:101C2000991FF1CF86957105610508940895E89490
:101C3000BB2766277727CB0197F908952F923F920C
:101C40004F925F926F927F928F929F92AF92BF92CC
:101C5000CF92DF92EF92FF920F931F93CF93DF9378
:101C6000CDB7DEB7CA1BDB0B0FB6F894DEBF0FBED5
:101C7000CDBF09942A88398848885F846E847D8422
:101C80008C849B84AA84B984C884DF80EE80FD8024
:101C90000C811B81AA81B981CE0FD11D0FB6F8949A
:101CA000DEBF0FBECDBFED0108950E94690E0C94FA
:101CB000E40D0E94DD0D58F00E94D60D40F029F48D
:101CC0005F3F29F00C94CD0D51110C94180E0C941B
:101CD000D30D0E94F50D68F39923B1F3552391F3C9
:101CE000951B550BBB27AA2762177307840738F08B
:101CF0009F5F5F4F220F331F441FAA1FA9F335D0E8
:101D00000E2E3AF0E0E832D091505040E695001C9B
:101D1000CAF72BD0FE2F29D0660F771F881FBB1F55
:101D2000261737074807AB07B0E809F0BB0B802D33
:101D3000BF01FF2793585F4F3AF09E3F510578F05F
:101D40000C94CD0D0C94180E5F3FE4F3983ED4F341
:101D5000869577956795B795F7959F5FC9F7880F33
:101D6000911D9695879597F90895E1E0660F771F85
:101D7000881FBB1F621773078407BA0720F0621B16
:101D8000730B840BBA0BEE1F88F7E095089597FB51
:101D9000072E16F4009407D077FD09D00E94FD0E9F
:101DA00007FC05D03EF4909581959F4F089570955E
:101DB00061957F4F0895A1E21A2EAA1BBB1BFD015E
:101DC0000DC0AA1FBB1FEE1FFF1FA217B307E4071A
:101DD000F50720F0A21BB30BE40BF50B661F771F72
:101DE000881F991F1A9469F7609570958095909552
:101DF0009B01AC01BD01CF010895AA1BBB1B51E1A2
:101E000007C0AA1FBB1FA617B70710F0A61BB70B6A
:101E1000881F991F5A95A9F780959095BC01CD010F
:101E20000895EE0FFF1F0590F491E02D09940F9394
:101E30001F93CF93DF938230910510F482E090E0FE
:101E4000E091DC02F091DD0230E020E0B0E0A0E0C3
:101E5000309799F42115310509F44AC0281B390B34
:101E600024303105D8F58A819B816115710589F18E
:101E7000FB0193838283FE0111C040815181028165
:101E8000138148175907E0F04817590799F410973C
:101E900061F012960C93129713961C933296CF0111
:101EA000DF91CF911F910F9108950093DC02109361
:101EB000DD02F4CF2115310551F04217530738F0F8
:101EC000A901DB019A01BD01DF01F801C1CFEF01DA
:101ED000F9CF9093DD028093DC02CDCFFE01E20FBB
:101EE000F31F819391932250310939832883D7CFEF
:101EF0002091DA023091DB02232B41F42091020180
:101F0000309103013093DB022093DA02209100012B
:101F1000309101012115310541F42DB73EB74091B3
:101F2000040150910501241B350BE091DA02F09178
:101F3000DB02E217F307A0F42E1B3F0B281739072B
:101F400078F0AC014E5F5F4F2417350748F04E0F15
:101F50005F1F5093DB024093DA02819391939FCFEE
:101F6000F0E0E0E09CCFCF93DF930097E9F0FC0135
:101F7000329713821282A091DC02B091DD02ED0152
:101F800030E020E01097A1F420813181820F931F6F
:101F90002091DA023091DB022817390709F061C07D
:101FA000F093DB02E093DA02DF91CF910895EA012A
:101FB000CE17DF07E8F54A815B819E014115510587
:101FC000B1F7E901FB83EA8349915991C40FD51F09
:101FD000EC17FD0761F4808191810296840F951FB3
:101FE000E90199838883828193819B838A83F0E0CE
:101FF000E0E012968D919C9113970097B9F52D9181
:102000003C911197CD010296820F931F2091DA0225
:102010003091DB022817390739F6309751F51092C5
:10202000DD021092DC02B093DB02A093DA02BCCF97
:10203000D383C28340815181840F951FC817D9076C
:1020400061F44E5F5F4F88819981480F591F51831A
:1020500040838A819B81938382832115310509F016
:10206000B0CFF093DD02E093DC029ECFFD01DC01F6
:10207000C0CF13821282D7CFB0E0A0E0E2E4F0E15B
:102080000C94200E8C01009751F4CB010E94170F85
:102090008C01C801CDB7DEB7E0E10C943C0EFC0129
:1020A000E60FF71F9C0122503109E217F30708F4ED
:1020B0009DC0D901CD91DC911197C617D70798F033
:1020C000C530D10530F3CE0104978617970708F382
:1020D000C61BD70B2297C193D1936D937C93CF01ED
:1020E0000E94B30FD6CF5B01AC1ABD0A4C018C0E17
:1020F0009D1EA091DC02B091DD02512C412CF12CEF
:10210000E12C109731F58091DA029091DB0288156D
:10211000990509F05CC04616570608F058C0809132
:10212000000190910101009741F48DB79EB7409155
:10213000040150910501841B950BE817F90708F07D
:1021400055C0F093DB02E093DA02F90171836083FA
:10215000A0CF8D919C91119712966C901297139627
:102160007C901397A815B90559F56C0142E0C40E8F
:10217000D11CCA14DB0420F1AC014A195B09DA0155
:102180001296159780F06282738251834083D90141
:102190006D937C93E114F10471F0D7011396FC93D5
:1021A000EE93129776CF22968C0F9D1FF9019183A3
:1021B0008083F301EFCFF093DD02E093DC0269CF7F
:1021C0004816590608F42C017D01D3019ACFCB01A2
:1021D0000E94170F7C01009749F0AE01B8010E94E0
:1021E000F910C8010E94B30F870153CF10E000E03F
:1021F00050CFFB01DC0102C001900D9241505040D4
:10220000D8F70895FB01DC0101900D920020E1F761
:10221000089510E0CFEDD0E004C0FE010E94110F40
:102220002196C03ED107C9F7F894FFCF0000DE0227
:10223000800000000000BB011B0148010802790179
:1022400057016B01000000002B031B01C1032A038F
:1022500087039F0312030000000006051B01C10352
:10226000C0030D0A0050756C7365203A2000506F52
:10227000776572203A20004B574800427574746F9E
:102280006E20707265737365640053656E64696E69
:102290006720534D532E2E2E0041542B434D47465D
:1022A0003D310D0041542B434D47533D222B3931D5
:1022B00039303830363539373435220D00506F77A4
:1022C000657220436F6E73756D6564203A20006BF4
:0E22D000776800546578742053656E742E0094
:107E0000112484B714BE81FFF0D085E080938100F7
:107E100082E08093C00088E18093C10086E0809377
:107E2000C20080E18093C4008EE0C9D0259A86E02C
:107E300020E33CEF91E0309385002093840096BBD3
:107E4000B09BFECF1D9AA8958150A9F7CC24DD24C4
:107E500088248394B5E0AB2EA1E19A2EF3E0BF2EE7
:107E6000A2D0813461F49FD0082FAFD0023811F036
:107E7000013811F484E001C083E08DD089C08234E0
:107E800011F484E103C0853419F485E0A6D080C0E4
:107E9000853579F488D0E82EFF2485D0082F10E0AE
:107EA000102F00270E291F29000F111F8ED06801E7
:107EB0006FC0863521F484E090D080E0DECF843638
:107EC00009F040C070D06FD0082F6DD080E0C81688
:107ED00080E7D80618F4F601B7BEE895C0E0D1E017
:107EE00062D089930C17E1F7F0E0CF16F0E7DF06D8
:107EF00018F0F601B7BEE89568D007B600FCFDCFD4
:107F0000A601A0E0B1E02C9130E011968C91119780
:107F100090E0982F8827822B932B1296FA010C0160
:107F200087BEE89511244E5F5F4FF1E0A038BF0790
:107F300051F7F601A7BEE89507B600FCFDCF97BE46
:107F4000E89526C08437B1F42ED02DD0F82E2BD052
:107F50003CD0F601EF2C8F010F5F1F4F84911BD097
:107F6000EA94F801C1F70894C11CD11CFA94CF0C13
:107F7000D11C0EC0853739F428D08EE10CD085E9AC
:107F80000AD08FE07ACF813511F488E018D01DD067
:107F900080E101D065CF982F8091C00085FFFCCF94
:107FA0009093C60008958091C00087FFFCCF809118
:107FB000C00084FD01C0A8958091C6000895E0E648
:107FC000F0E098E1908380830895EDDF803219F02E
:107FD00088E0F5DFFFCF84E1DECF1F93182FE3DFCA
:107FE0001150E9F7F2DF1F91089580E0E8DFEE27F6
:047FF000FF270994CA
:027FFE00040479
:00000001FF
