:100000000C94E0000C9408010C9408010C94000777
:100010000C9400070C9400070C9408010C94080140
:100020000C9408010C9408010C9408010C9408012C
:100030000C9408010C9408010C9408010C9408011C
:100040000C94B6060C9408010C9484060C945E067D
:100050000C9408010C9408010C9408010C940801FC
:100060000C9408010C94080100407A10F35A00A087
:10007000724E18090010A5D4E80000E87648170071
:1000800000E40B54020000CA9A3B000000E1F505B1
:10009000000080969800000040420F000000A086FB
:1000A00001000000102700000000E803000000002D
:1000B0006400000000000A000000000001000000D1
:1000C00000002C76D888DC674F0823DFC1DFAE59EB
:1000D000E1B1B796E5E3E453C63AE651997696E87E
:1000E000E6C28426EB898C9B62ED407C6FFCEFBC02
:1000F0009C9F40F2BAA56FA5F490055A2AF75C932D
:100100006B6CF9676DC11BFCE0E40D47FEF520E662
:10011000B500D0ED902E0300943577050080841E45
:10012000080000204E0A000000C80C333333330FA0
:10013000986E12831141EF8D2114893BE65516CF3D
:10014000FEE6DB18D1844B381BF77C1D901DA4BB49
:10015000E424203284725E228100C9F124ECA1E5FE
:100160003D2700000000240027002A0000000008AE
:10017000000201000003040700000000000000006E
:1001800000000000230026002900000000002500D8
:1001900028002B00040404040404040402020202E4
:1001A000020203030303030301020408102040803A
:1001B00001020408102001020408102078073D0BFA
:1001C00011241FBECFEFD8E0DEBFCDBF22E0AAEAE8
:1001D000B1E001C01D92A63DB207E1F711E0A0E039
:1001E000B1E0EAEBF2E202C005900D92AA3AB10743
:1001F000D9F710E0CFEDD0E004C02197FE010E94B6
:10020000580FCE3DD107C9F70E9457080C945011E2
:100210000C94000080E480937C0080917A008064DC
:1002200080937A0080917A0086FDFCCF80917800DF
:10023000909179000895AF92BF92CF92DF92EF92A2
:10024000FF920F931F93CF93DF936C017B018B0180
:10025000040F151FEB015E01AE18BF08C017D107D0
:1002600059F06991D601ED91FC910190F081E02D5A
:10027000C6010995892B79F7C501DF91CF911F91AF
:100280000F91FF90EF90DF90CF90BF90AF900895C7
:10029000FC01538D448D252F30E0842F90E0821B8C
:1002A000930B541710F0CF96089501970895FC0111
:1002B000918D828D981761F0A28DAE0FBF2FB11D69
:1002C0005D968C91928D9F5F9F73928F90E00895C1
:1002D0008FEF9FEF0895FC01918D828D981731F07B
:1002E000828DE80FF11D858D90E008958FEF9FEFCF
:1002F0000895FC01918D228D892F90E0805C9F4FA5
:10030000821B91098F73992708958EEF91E00E94C7
:10031000790121E0892B09F420E0822F089580E003
:1003200090E0892B29F00E94850181110C94000036
:100330000895FC01A48DA80FB92FB11DA35ABF4F7A
:100340002C91848D90E001968F739927848FA689D4
:10035000B7892C93A089B1898C91837080648C9328
:10036000938D848D981306C00288F389E02D8081D7
:100370008F7D80830895EF92FF920F931F93CF9309
:10038000DF93EC0181E0888F9B8D8C8D98131AC0D0
:10039000E889F989808185FF15C09FB7F894EE89B7
:1003A000FF896083E889F989808183708064808314
:1003B0009FBF81E090E0DF91CF911F910F91FF905F
:1003C000EF900895F62E0B8D10E00F5F1F4F0F7307
:1003D0001127E02E8C8D8E110CC00FB607FCFACFC2
:1003E000E889F989808185FFF5CFCE010E949901C6
:1003F000F1CFEB8DEC0FFD2FF11DE35AFF4FF08293
:100400009FB7F8940B8FEA89FB8980818062CFCFF8
:10041000CF93DF93EC01888D8823B9F0AA89BB893B
:10042000E889F9898C9185FD03C0808186FD0DC026
:100430000FB607FCF7CF8C9185FFF2CF808185FF47
:10044000EDCFCE010E949901E9CFDF91CF910895C0
:10045000833081F028F4813099F08230A9F008953A
:100460008730A9F08830C9F08430B1F480918000E1
:100470008F7D03C0809180008F77809380000895E6
:1004800084B58F7784BD089584B58F7DFBCF80912F
:10049000B0008F778093B00008958091B0008F7D79
:1004A000F9CF1F93CF93DF93282F30E0F901E45960
:1004B000FE4F8491F901E855FE4FD491F901EC56B5
:1004C000FE4FC491CC23A9F0162F81110E9428025F
:1004D000EC2FF0E0EE0FFF1FE657FE4FA591B49111
:1004E0008FB7F894EC91111108C0D095DE23DC93FE
:1004F0008FBFDF91CF911F910895DE2BF8CFCF935F
:10050000DF9390E0FC01E855FE4F24918C569E4FFE
:10051000FC0184918823C9F090E0880F991FFC01A9
:10052000EE59FE4FA591B491FC01E657FE4FC591DF
:10053000D49161110DC09FB7F8948C9120958223BE
:100540008C938881282328839FBFDF91CF910895C2
:10055000623051F49FB7F8943C91822F80958323A9
:100560008C93E8812E2BEFCF8FB7F894EC912E2B44
:100570002C938FBFEACF3FB7F8948091EB01909115
:10058000EC01A091ED01B091EE0126B5A89B05C04C
:100590002F3F19F00196A11DB11D3FBFBA2FA92F02
:1005A000982F8827BC01CD01620F711D811D911DFF
:1005B00042E0660F771F881F991F4A95D1F708956B
:1005C0008F929F92AF92BF92CF92DF92EF92FF9263
:1005D0004B015C010E94BB026B017C010E94BB02CB
:1005E0006C197D098E099F09683E7340810591054C
:1005F000A8F321E0821A9108A108B10888EEC80E7C
:1006000083E0D81EE11CF11C81149104A104B10403
:1006100029F7FF90EF90DF90CF90BF90AF909F9021
:100620008F9008952091F1013091F2012817390738
:1006300071F49091EF018091F001981741F0E091F1
:10064000EF01F0E0E655FE4F808190E008958FEFD6
:100650009FEF08950895EF92FF920F931F93CF930A
:10066000DF93DC015C96ED90FC905D97E114F10462
:1006700079F481E090E013969C938E93129790E02A
:1006800080E0DF91CF911F910F91FF90EF9008953F
:100690005196ED91FC91529750968C915097982FCE
:1006A00090950FB75E962C915E97122F127021FDD8
:1006B0006095F8942081112319F1282B2083E701FC
:1006C0002197F1F728E0462F50E0308160FF1AC0F3
:1006D000382B3083E7012197F1F7BA0175956795BB
:1006E000215089F7112381F08081892380830FBFF6
:1006F0005C968D919C910197F1F781E090E0C1CFDC
:100700002923DCCF3923E5CF9081892BEFCF2091AE
:10071000F1013091F2012817390771F48091F0014D
:100720002091EF0190E0805C9F4F821B910960E473
:1007300070E00E940E0F089590E080E008952091EF
:10074000F1013091F20128173907B9F49091EF01C6
:100750008091F001981789F0E091EF01F0E0E65503
:10076000FE4F80812091EF0130E02F5F3F4F2F73CC
:1007700033272093EF0190E008958FEF9FEF0895C6
:10078000089590E080E00895CF92DF92EF92FF927B
:10079000CF93DF93C091FB01D091FC01209769F1C9
:1007A0006091F7017091F80190E080E00E94B30D34
:1007B0006B017C01BE0190E080E00E94B30D9B01C3
:1007C000AC01C701B6010E949C0E6B017C0120E0C8
:1007D00030E0A9010E94AE0D882379F0A7019601AF
:1007E00060E070EA8CE094E40E949C0EDF91CF916F
:1007F000FF90EF90DF90CF90089560E070E0CB0124
:10080000F5CFCF93DF93EC0160E08E810E9451021F
:1008100061E08E810E94510260E08E810E9451024F
:100820008BE891E00197F1F7DF91CF910895CF9296
:10083000DF92EF92FF920F931F93CF93DF936C01A0
:100840007C0187E0E80EF11CD0E0C0E0062F10E04C
:10085000B8010C2E02C0759567950A94E2F7617095
:10086000F70181917F010E9451022196C430D10588
:1008700079F7C601DF91CF911F910F91FF90EF9013
:10088000DF90CF900C940104CF92DF92EF92FF9211
:100890000F931F93CF93DF93EC01F62E642F8C817F
:1008A0000E9451028D818F3F19F060E00E94510239
:1008B0000F2D10E08F8584FF25C06E0187E0C80EE4
:1008C000D11CF12CE12CB8010E2C02C07595679556
:1008D0000A94E2F76170F60181916F010E94510262
:1008E000FFEFEF1AFF0A88E0E816F10461F7CE0186
:1008F000DF91CF911F910F91FF90EF90DF90CF90FC
:100900000C940104B80184E0759567958A95E1F728
:10091000CE010E9417046F2DCE01DF91CF911F9160
:100920000F91FF90EF90DF90CF900C94170440E070
:10093000682F8AEB92E00C944404CF93DF938230CB
:1009400029F49091C90298609093C9028093CD02D6
:100950001092CE0280E48093CF0280E18093D00297
:1009600080E58093D10261E08091BE020E947F0207
:100970008091BF028F3F19F061E00E947F0261E029
:100980008091C0020E947F02CAEBD2E09E012A5BE6
:1009900032408091C90284FD0BC084E090E0219632
:1009A0002817390744F461E08E810E947F02EECF60
:1009B00088E090E0F4CF8BE39DE00197F1F760E0F1
:1009C0008091BE020E94510260E08091C0020E94AC
:1009D00051028091BF028F3F19F060E00E945102E6
:1009E0008091C90284FD39C063E08AEB92E00E94E5
:1009F0001704CBE4D6E4CE010197F1F763E08AEB6C
:100A000092E00E9417042197F1F763E08AEB92E0ED
:100A10000E94170483E592E00197F1F762E08AEB08
:100A200092E00E9417048091C90280620E9497049C
:100A300084E08093CA028CE00E94970481E00E94C7
:100A400097048BE39FE10197F1F782E08093CB025B
:100A500086E0DF91CF910C94970480620E94970406
:100A60008BE496E40197F1F78091C90280620E94BD
:100A7000970483E592E00197F1F78091C9028062C3
:100A80000E949704D0CF41E00E94440481E090E0AE
:100A90000895FB0101900020E9F73197AF01461B53
:100AA000570BDC01ED91FC910280F381E02D09945C
:100AB000CF93DF93BC018EEF91E00E944905EC01DA
:100AC00066E371E08EEF91E00E9449058C0F9D1F57
:100AD000DF91CF9108950F931F93CF93DF93EC0194
:100AE00088819981009759F02A813B812617370721
:100AF00030F081E0DF91CF911F910F9108958B012C
:100B00006F5F7F4F0E948310009759F0998388830D
:100B10001B830A832C813D81232B59F7FC01108212
:100B2000E8CF80E0E7CFCF93DF93EC018881998114
:100B3000009711F00E94FA0F198218821D821C8200
:100B40001B821A82DF91CF910895EF92FF920F934B
:100B50001F93CF93DF93EC017B01198218821B82D4
:100B60001A821D821C82FB0101900020E9F7319757
:100B70008F01061B170BB8010E946B05811109C07C
:100B8000CE01DF91CF911F910F91FF90EF900C94C8
:100B900093051D830C83B70188819981DF91CF91E3
:100BA0001F910F91FF90EF900C944911CF92DF921B
:100BB000EF92FF920F931F93CF93DF93CDB7DEB7E2
:100BC000A1970FB6F894DEBF0FBECDBF7C01CB015D
:100BD000BA01F701118210821382128215821482E7
:100BE0008E010F5F1F4F22E044E00E94590B6C0101
:100BF000009771F0FC0101900020E9F731978F0117
:100C0000081B190BB801C7010E946B05811112C0A6
:100C1000C7010E949305A1960FB6F894DEBF0FBEE0
:100C2000CDBFDF91CF911F910F91FF90EF90DF909B
:100C3000CF900895F70115830483B60180819181D7
:100C40000E944911E8CFEF92FF920F931F93CF9329
:100C5000DF93EC01FB01E080F180E114F10411F17C
:100C60000481158101151105A9F08C819D81080F62
:100C7000191FB801CE010E946B05882399F02881C5
:100C800039818C819D81B701820F931F0E94491188
:100C90001D830C83CE01DF91CF911F910F91FF90A7
:100CA000EF900895CE010E949305F4CFFC0180815E
:100CB0009181009711F00C94FA0F08951F920F92F2
:100CC0000FB60F9211242F933F934F935F936F931F
:100CD0007F938F939F93AF93BF93EF93FF938EEF89
:100CE00091E00E949901FF91EF91BF91AF919F9187
:100CF0008F917F916F915F914F913F912F910F90C5
:100D00000FBE0F901F9018951F920F920FB60F9263
:100D100011242F938F939F93EF93FF93E0910E02F3
:100D2000F0910F028081E0911402F091150282FD92
:100D30001BC09081809117028F5F8F7320911802E2
:100D4000821741F0E0911702F0E0E250FE4F958FDC
:100D500080931702FF91EF919F918F912F910F90A8
:100D60000FBE0F901F9018958081F4CF1F920F92A5
:100D70000FB60F9211242F933F938F939F93AF93AE
:100D8000BF938091F3019091F401A091F501B0918E
:100D9000F6013091EA0123E0230F2D3758F5019633
:100DA000A11DB11D2093EA018093F3019093F401FA
:100DB000A093F501B093F6018091EB019091EC01C5
:100DC000A091ED01B091EE010196A11DB11D80939E
:100DD000EB019093EC01A093ED01B093EE01BF9174
:100DE000AF919F918F913F912F910F900FBE0F90D8
:100DF0001F90189526E8230F0296A11DB11DD2CF92
:100E00001F920F920FB60F9211242F933F934F937F
:100E10005F936F937F938F939F93AF93BF93EF9362
:100E2000FF93E091F101F091F201309749F0A6852E
:100E3000B7858585968D91FF14C09C918923A1F477
:100E4000FF91EF91BF91AF919F918F917F916F91A2
:100E50005F914F913F912F910F900FBE0F901F9078
:100E600018959C91892361F7A389B4899C91858900
:100E7000809589238C93868997890197F1F7608DF6
:100E8000718DA685B785558538E020E0CB010197A7
:100E9000F1F7822F90E095958795282F4C91452367
:100EA00009F02068315091F7868D81FD2095809161
:100EB000F00190E001968F7399273091EF01381778
:100EC00099F0A091F001B0E0A655BE4F2C9380930D
:100ED000F001828D938D0197F1F7A389B4898C91EC
:100EE0009589892B8C93ACCF868D8160868FF1CFCD
:100EF000CF92DF92EF92FF921092010210920002C5
:100F000098EEC92E93E0D92EE12CF12CC09202026A
:100F1000D0920302E0920402F09205028AE091E08E
:100F20009093FF018093FE0185EC90E090930B027B
:100F300080930A0284EC90E090930D0280930C025F
:100F400080EC90E090930F0280930E0281EC90E091
:100F5000909311028093100282EC90E09093130220
:100F60008093120286EC90E0909315028093140215
:100F700010921702109218021092190210921A027F
:100F80001092BD021092BC028EE291E09093BB02DF
:100F90008093BA028DE08093BE028FEF8093BF02F0
:100FA0008CE08093C0028BE08093C1028AE0809342
:100FB000C20289E08093C30288E08093C402109249
:100FC000C5021092C6021092C7021092C802109277
:100FD000C90281E00E949D0410929E0210929D021F
:100FE000C0929F02D092A002E092A102F092A202CF
:100FF0008CE191E090939C0280939B021092B2024C
:101000001092B1021092B4021092B3021092B60282
:101010001092B5021092B8021092B7026091B90214
:101020006E7F6D7F6093B9026695617081E068277D
:101030000E94510261E081E00E947F02E9EAF1E052
:10104000E491E093AB02E5E9F1E0E491F0E0EE0F2A
:10105000FF1FE657FE4F859194919093AD028093C8
:10106000AC0260E080E00E947F028091B90281FDC5
:1010700004C061E080E00E9451021092A702E8EAF9
:10108000F1E0E491E093A802E4E9F1E0E491F0E01A
:10109000EE0FFF1FE058FE4F859194919093AA02A6
:1010A0008093A902FF90EF90DF90CF900895CF93A7
:1010B000DF93CDB7DEB7A7970FB6F894DEBF0FBEAC
:1010C000CDBF789484B5826084BD84B5816084BDD1
:1010D00085B5826085BD85B5816085BD80916E00D6
:1010E000816080936E001092810080918100826007
:1010F0008093810080918100816080938100809144
:1011000080008160809380008091B1008460809332
:10111000B1008091B00081608093B00080917A002E
:10112000846080937A0080917A00826080937A0054
:1011300080917A00816080937A0080917A00806843
:1011400080937A001092C10082E00E949D0460E0CA
:101150008EE00E947F0262E086E00E947F0261E0F2
:1011600087E00E947F021092B6021092B5021092A0
:10117000B4021092B3021092B2021092B1028DE941
:1011800091E09093B8028093B7029091A7029631B4
:1011900008F047C02DEB30E03093B2022093B1024B
:1011A0002BE931E03093B4022093B3022CE231E01A
:1011B0003093B6022093B5022091680084E0983005
:1011C00048F031E09E3008F430E081E001C0880F43
:1011D0003A95EAF7822B809368002DE630E098304C
:1011E00050F02BE630E09E3030F02CE630E09631C7
:1011F00010F030E020E03093AF022093AE02292FB0
:1012000030E0983008F008C281E001C0880F9A955C
:10121000EAF78093B0028091B7029091B8020197EB
:10122000F1F78091B5029091B602892B49F1E091D6
:10123000F101F091F20122E0EB39F20709F1309768
:1012400039F0A389B4899C918589809589238C93F1
:101250008091B9028E7F8093B9021092F0011092B2
:10126000EF018BE992E09093F2018093F101E0911C
:10127000AE02F091AF0280819091B002892B808301
:10128000E0910E02F0910F0282E08083E0910A0269
:10129000F0910B021082E0910C02F0910D028FECA4
:1012A000808310921602E0911202F091130286E000
:1012B0008083E0911002F09111028081806180832F
:1012C000E0911002F0911102808188608083E091AA
:1012D0001002F0911102808180688083E0911002F9
:1012E000F091110280818F7D808368EE73E080E051
:1012F00090E00E94E0021092F8011092F7012FB7DF
:10130000F8948091F3019091F401A091F501B091CE
:10131000F6012FBF9093FA018093F9011092FC011E
:101320001092FB011092FD019AE0492E512C612C84
:10133000712C22E7822E21E0922E30E0A32E30E0A5
:10134000B32E33243394E1E08091CD028111E0E0AB
:10135000E195F0E0E654FD4F848980680E9497048F
:1013600069E371E08AEB92E00E944905E091CD02C9
:10137000E23008F05EC1E150F0E0E654FD4F8489B0
:1013800080680E9497040E94C403AB01BC01CE0197
:1013900001960E94D60562E471E0CE0182960E9419
:1013A000A505BE016F5F7F4FCE0182960E94230686
:1013B000FC0144815581608171818AEB92E00E9439
:1013C0001B01CE0182960E945606CE0101960E9414
:1013D00056060E940A01853F91400CF42CC1809171
:1013E000FD01811128C161E087E00E945102E1E026
:1013F0008091CD028111E0E0E195F0E0E654FD4FEF
:101400008489865F80680E9497048FB7F894C090A3
:10141000F301D090F401E090F501F090F6018FBF58
:101420002091FB013091FC012F5F3F4F3093FC0175
:101430002093FB018091F9019091FA01A601481BCC
:10144000590BCA014091F7015091F801840F951F83
:101450009093F8018093F701D092FA01C092F901BC
:1014600050E040E019A28E010F5D1F4FCA01B90183
:10147000A30192010E94220F605DF80162938F0127
:10148000211531054105510589F7309729F0BF0134
:101490008AEB92E00E9449053092FD01F4018491AB
:1014A000EEEAF1E01491EAE9F1E004910111D5C00E
:1014B0008BE491E00E94580568EC70E080E090E0D9
:1014C0000E94E0020E94C4036B017C018AE591E066
:1014D0000E94580569E671E08BE992E00E94490597
:1014E00064E670E080E090E00E94E00264E771E072
:1014F0008BE992E00E94490564EF71E080E090E0A2
:101500000E94E002B701A601CE0101960E94D60515
:101510006DE871E0CE0182960E94A505BE016F5F65
:101520007F4FCE0182960E942306FC0144815581A3
:10153000608171818BE992E00E941B01CE0182964D
:101540000E945606CE0101960E945606B701A601DA
:10155000CE0101960E94D6056DE871E0CE0182961B
:101560000E94A505BE016F5F7F4FCE0182960E944B
:101570002306FC0144815581608171818EEF91E0E9
:101580000E941B0166E371E08EEF91E00E94490525
:10159000CE0182960E945606CE0101960E94560602
:1015A00064EF71E080E090E00E94E0026AE18BE984
:1015B00092E00E942B0364EF71E080E090E00E94D3
:1015C000E00266E371E08BE992E00E9449058FE951
:1015D00091E00E94580564EF71E080E090E00E9485
:1015E000E0028BE992E00E948703892B49F08BE9A6
:1015F00092E00E949F03682F8EEF91E00E94BB0152
:10160000A114B10409F49FCE0E948501882309F436
:101610009ACE0E94000097CE9E3040F428503109A7
:1016200081E001C0880F2A95EAF7F3CD2E503109E9
:10163000F7CFE1E0A1CE0E940A01843F91400CF077
:101640002DCF8091FD01882309F428CF60E087E049
:101650000E9451021092FD0121CF81110E942802A7
:10166000E02FF0E0EE0FFF1FE058FE4FA591B49180
:101670008C91182309F41CCFB4CF8CE191E09093A6
:101680009C0280939B028091F1019091F2018B5911
:10169000924071F4E091AE02F091AF02908180919E
:1016A000B0028095892380831092F2011092F1019B
:1016B0000895EF920F931F93CF93DF93E80134E0E7
:1016C00047FD34E1042E000C550B57FF03C0519524
:1016D00041955109E32E022F242FAE010E94770B72
:1016E000CE01DF91CF911F910F91EF900895A9E066
:1016F000B0E0EDE7FBE00C946B0E6A01F22EB02E29
:10170000102FFBE3AF2EA01608F41BE31F5F012F81
:1017100027E0AE014F5F5F4F0E94D60CBC0189816C
:10172000982F9970913009F43FC09BE2E1FC04C00E
:101730009E2D9170E0FC3AC05E2D5071E82FE8704C
:1017400083FF46C084E0911101C083E0EF2DE81BC8
:101750008F1508F0E0E0D6018E2F20E2552351F1DD
:10176000992329F0D6019C93C60101966C0196013C
:101770002D5F3F4FE2FE24C08EE4D6018C9391E4AE
:1017800011969C93119712968C93D9018E2F90E20B
:1017900081111BC0E20FF32FF11D10828EEF9FEF1E
:1017A0002996ECE00C94870E9DE2C6CF90E2C4CF60
:1017B0002D9381508111FCCFCE0ED11CE0E0D0CF13
:1017C0008EE6D6018C9391E6DBCF9D938150E0CFDE
:1017D000482F447082FF3DC084E0911101C083E036
:1017E0008F1510F4EF2DE81BD6018E2F20E2552324
:1017F00009F1992329F0D6019C93C60101966C0149
:1018000096012D5F3F4FE2FE1BC089E4D6018C9309
:101810008EE411968C93119786E412968C93D901DD
:101820008E2F90E2882309F4B5CF9D938150FACF93
:101830002D9381508111FCCFCE0ED11CE0E0D9CF89
:1018400089E6D6018C938EE611968C93119786E6E5
:10185000E4CF9B0177FF02C030E020E0A1E0B0E0E0
:10186000911102C0B0E0A0E0F9013196AE0FBF1FA8
:101870008B2C912CBB2009F461C05401EFEFAE1A00
:10188000BE0AAA0DBB1DFA161B0619F014F04F2D47
:101890004A1B511188C0E3FC59C07601A42FB0E265
:1018A000A1114FC0C40ED11C992309F45BC040E0C4
:1018B000D6011196F60190836D01552309F448C0B5
:1018C000012F060F9A81582F507184FF03C0913366
:1018D00009F4015010160CF047C0093008F008E078
:1018E000EEE2FE2E5B01A01AB1088501919481946D
:1018F00091082F3F320729F4D601FC92F601319668
:101900006F016217730794F1021713077CF5DB016F
:10191000A21BB30BAA24A394B12CAC0EBD1EAA0D1E
:10192000BB1D11968C9121503109D60111962815B5
:101930003905F4F0F60180836D01DBCFB12CA12CC9
:10194000A0CFF701B1937F01A150AACF9111B0CFE1
:10195000D601942F50E302C05D9391509111FCCFBA
:10196000C40ED11C40E0ACCF01E0BACF80E3DBCFA6
:101970006217730731F4963388F4953311F45523C5
:1019800069F0F6018083FD01842F90E2811108C087
:10199000A40FB11D1C9290E080E002CF81E3F1CF53
:1019A00091938150F3CF911183CF8ACF283008F0E3
:1019B00027E03327DA01990F311D87FD91600096EA
:1019C0006105710539F432602E5F3D9330E32A954D
:1019D000E1F708959F3F30F080387105610509F007
:1019E0003C5F3C5F3D93913008F08068911DDF9330
:1019F000CF931F930F93FF92EF92192F987F969595
:101A0000E92F96959695E90FFF27EE53FF4F9927FB
:101A10003327EE24FF24A701E701059008940794DB
:101A200028F4360FE71EF81E491F511D660F771F59
:101A3000881F991F0694A1F70590079428F4E70ED4
:101A4000F81E491F561FC11D770F881F991F661F5B
:101A50000694A1F70590079428F4F80E491F561F25
:101A6000C71FD11D880F991F661F771F0694A1F706
:101A70000590079420F4490F561FC71FD81F990FD0
:101A8000661F771F881F0694A9F784911095177019
:101A900041F0D695C79557954795F794E7941A95D1
:101AA000C1F7E8E6F0E068941590159135916591DD
:101AB000959105907FE27395E118F10A430B560B5F
:101AC000C90BD009C0F7E10CF11E431F561FC91FF7
:101AD000D01D7EF4703311F48A95E6CFE89401505E
:101AE00030F0080F0AF40027021708F4202F23957E
:101AF000022F7A3328F079E37D932A95E9F710C015
:101B00007D932A9589F6069497956795379517954D
:101B10001794E118F10A430B560BC90BD00998F042
:101B200023957E9173957A3308F070E37C932013AC
:101B3000B8F77E9170617D9330F0839571E37D936A
:101B400070E32A95E1F71124EF90FF900F911F9118
:101B5000CF91DF91992787FD909508950E94F00D10
:101B600008F481E00895E89409C097FB3EF490954D
:101B70008095709561957F4F8F4F9F4F9923A9F066
:101B8000F92F96E9BB279395F695879577956795F5
:101B9000B795F111F8CFFAF4BB0F11F460FF1BC039
:101BA0006F5F7F4F8F4F9F4F16C0882311F096E9CC
:101BB00011C0772321F09EE8872F762F05C066237A
:101BC00071F096E8862F70E060E02AF09A95660F33
:101BD000771F881FDAF7880F9695879597F90895EC
:101BE000990F0008550FAA0BE0E8FEEF161617062E
:101BF000E807F907C0F012161306E407F50798F096
:101C0000621B730B840B950B39F40A2661F0232BAE
:101C1000242B252B21F408950A2609F4A140A6952A
:101C20008FEF811D811D089597F99F6780E870E00F
:101C300060E008959FEF80EC089500240A94161642
:101C4000170618060906089500240A9412161306AA
:101C5000140605060895092E0394000C11F4882338
:101C600052F0BB0F40F4BF2B11F460FF04C06F5F54
:101C70007F4F8F4F9F4F089557FD9058440F551F2A
:101C800059F05F3F71F04795880F97FB991F61F0FE
:101C90009F3F79F087950895121613061406551F75
:101CA000F2CF4695F1DF08C0161617061806991FE1
:101CB000F1CF86957105610508940895E894BB27D6
:101CC00066277727CB0197F908952F923F924F927D
:101CD0005F926F927F928F929F92AF92BF92CF92BC
:101CE000DF92EF92FF920F931F93CF93DF93CDB7C5
:101CF000DEB7CA1BDB0B0FB6F894DEBF0FBECDBF3D
:101D000009942A88398848885F846E847D848C840D
:101D10009B84AA84B984C884DF80EE80FD800C8116
:101D20001B81AA81B981CE0FD11D0FB6F894DEBFF9
:101D30000FBECDBFED0108950E94B00E0C942B0E86
:101D40000E94240E58F00E941D0E40F029F45F3FBF
:101D500029F00C94140E51110C945F0E0C941A0E71
:101D60000E943C0E68F39923B1F3552391F3951B20
:101D7000550BBB27AA2762177307840738F09F5FAC
:101D80005F4F220F331F441FAA1FA9F335D00E2E19
:101D90003AF0E0E832D091505040E695001CCAF786
:101DA0002BD0FE2F29D0660F771F881FBB1F261749
:101DB00037074807AB07B0E809F0BB0B802DBF0120
:101DC000FF2793585F4F3AF09E3F510578F00C94EF
:101DD000140E0C945F0E5F3FE4F3983ED4F38695A7
:101DE00077956795B795F7959F5FC9F7880F911D10
:101DF0009695879597F90895E1E0660F771F881FFC
:101E0000BB1F621773078407BA0720F0621B730BAE
:101E1000840BBA0BEE1F88F7E095089597FB072E09
:101E200016F4009407D077FD09D00E94440F07FCF8
:101E300005D03EF4909581959F4F089570956195DA
:101E40007F4F0895A1E21A2EAA1BBB1BFD010DC0F6
:101E5000AA1FBB1FEE1FFF1FA217B307E407F5075A
:101E600020F0A21BB30BE40BF50B661F771F881F36
:101E7000991F1A9469F760957095809590959B01CC
:101E8000AC01BD01CF010895AA1BBB1B51E107C0E6
:101E9000AA1FBB1FA617B70710F0A61BB70B881FFA
:101EA000991F5A95A9F780959095BC01CD01089589
:101EB000EE0FFF1F0590F491E02D09940F931F93EF
:101EC000CF93DF938230910510F482E090E0E091AF
:101ED000D402F091D50230E020E0B0E0A0E03097ED
:101EE00099F42115310509F44AC0281B390B243017
:101EF0003105D8F58A819B816115710589F1FB0156
:101F000093838283FE0111C040815181028113813C
:101F100048175907E0F04817590799F4109761F0EE
:101F200012960C93129713961C933296CF01DF9161
:101F3000CF911F910F9108950093D4021093D50271
:101F4000F4CF2115310551F04217530738F0A9019C
:101F5000DB019A01BD01DF01F801C1CFEF01F9CF2B
:101F60009093D5028093D402CDCFFE01E20FF31FF0
:101F7000819391932250310939832883D7CF2091BF
:101F8000D2023091D302232B41F4209102013091EF
:101F900003013093D3022093D202209100013091AB
:101FA00001012115310541F42DB73EB740910401DF
:101FB00050910501241B350BE091D202F091D30220
:101FC000E217F307A0F42E1B3F0B2817390778F010
:101FD000AC014E5F5F4F2417350748F04E0F5F1F6F
:101FE0005093D3024093D202819391939FCFF0E01C
:101FF000E0E09CCFCF93DF930097E9F0FC013297AC
:1020000013821282A091D402B091D502ED0130E08A
:1020100020E01097A1F420813181820F931F20913D
:10202000D2023091D3022817390709F061C0F0932A
:10203000D302E093D202DF91CF910895EA01CE1747
:10204000DF07E8F54A815B819E0141155105B1F733
:10205000E901FB83EA8349915991C40FD51FEC171D
:10206000FD0761F4808191810296840F951FE9013B
:1020700099838883828193819B838A83F0E0E0E067
:1020800012968D919C9113970097B9F52D913C91E3
:102090001197CD010296820F931F2091D2023091A9
:1020A000D3022817390739F6309751F51092D50227
:1020B0001092D402B093D302A093D202BCCFD383A8
:1020C000C28340815181840F951FC817D90761F4DD
:1020D0004E5F5F4F88819981480F591F518340831C
:1020E0008A819B81938382832115310509F0B0CFCA
:1020F000F093D502E093D4029ECFFD01DC01C0CF66
:1021000013821282D7CFB0E0A0E0E9E8F0E10C94AE
:10211000670E8C01009751F4CB010E945E0F8C0179
:10212000C801CDB7DEB7E0E10C94830EFC01E60FE9
:10213000F71F9C0122503109E217F30708F49DC0F4
:10214000D901CD91DC911197C617D70798F0C5300A
:10215000D10530F3CE0104978617970708F3C61B05
:10216000D70B2297C193D1936D937C93CF010E949B
:10217000FA0FD6CF5B01AC1ABD0A4C018C0E9D1E26
:10218000A091D402B091D502512C412CF12CE12C1C
:10219000109731F58091D2029091D302881599055C
:1021A00009F05CC04616570608F058C0809100013F
:1021B00090910101009741F48DB79EB740910401C1
:1021C00050910501841B950BE817F90708F055C0DD
:1021D000F093D302E093D202F90171836083A0CF20
:1021E0008D919C91119712966C90129713967C90FA
:1021F0001397A815B90559F56C0142E0C40ED11C1E
:10220000CA14DB0420F1AC014A195B09DA01129609
:10221000159780F06282738251834083D9016D9358
:102220007C93E114F10471F0D7011396FC93EE93C3
:10223000129776CF22968C0F9D1FF9019183808390
:10224000F301EFCFF093D502E093D40269CF4816A3
:10225000590608F42C017D01D3019ACFCB010E94CD
:102260005E0F7C01009749F0AE01B8010E94401159
:10227000C8010E94FA0F870153CF10E000E050CF51
:10228000FB01DC0102C001900D9241505040D8F793
:102290000895FB01DC0101900D920020E1F7089503
:1022A00010E0CFEDD0E004C0FE010E94580F21964F
:0A22B000C03ED107C9F7F894FFCF34
:1022BA000000D602800000000000BB011B0148019B
:1022CA000802790157016B01000000002B031B0172
:1022DA00C1032A0387039F0312030000000043057A
:1022EA001B01C103C0030D0A0050756C7365203AC7
:1022FA002000506F776572203A2000427574746F1F
:10230A006E20707265737365640053656E64696EDE
:10231A006720534D532E2E2E0041542B434D4746D2
:10232A003D310D0041542B434D47533D222B39314A
:10233A0039303830363539373435220D00506F7719
:10234A00657220436F6E73756D6564203A20005480
:0A235A006578742053656E742E0040
:00000001FF
