:020000040000FA
:100000000C94DA000C9402010C9402010C9402018D
:100010000C9402010C9402010C9402010C94020154
:100020000C9402010C9402010C9402010C94020144
:100030000C9402010C9402010C9402010C94020134
:100040000C9450030C9402010C9402010C940201D4
:100050000C9402010C9402010C9402010C94020114
:100060000C9402010C94020100407A10F35A00A093
:10007000724E18090010A5D4E80000E87648170071
:1000800000E40B54020000CA9A3B000000E1F505B1
:10009000000080969800000040420F000000A086FB
:1000A00001000000102700000000E803000000002D
:1000B0006400000000000A000000000001000000D1
:1000C00000002C76D888DC674F0823DFC1DFAE59EB
:1000D000E1B1B796E5E3E453C63AE651997696E87E
:1000E000E6C28426EB898C9B62ED407C6FFCEFBC02
:1000F0009C9F40F2BAA56FA5F490055A2AF75C932D
:100100006B6CF9676DC11BFCE0E40D47FEF520E662
:10011000B500D0ED902E0300943577050080841E45
:10012000080000204E0A000000C80C333333330FA0
:10013000986E12831141EF8D2114893BE65516CF3D
:10014000FEE6DB18D1844B381BF77C1D901DA4BB49
:10015000E424203284725E228100C9F124ECA1E5FE
:100160003D2700000000240027002A0000000000B6
:10017000250028002B0004040404040404040202E3
:100180000202020203030303030301020408102016
:100190004080010204081020010204081020000021
:1001A0000008000201000003040700000000000036
:1001B0000000760511241FBECFEFD8E0DEBFCDBF13
:1001C00021E0A4E2B1E001C01D92A035B207E1F741
:1001D00011E0A0E0B1E0EAECF6E102C005900D927A
:1001E000A432B107D9F710E0CAEDD0E004C02197DE
:1001F000FE010E946B09C93DD107C9F70E949A030D
:100200000C94630B0C94000080E480937C0080913C
:100210007A00806480937A0080917A0086FDFCCF1A
:1002200080917800909179000895AF92BF92CF921B
:10023000DF92EF92FF920F931F93CF93DF936C01A6
:100240007B018B01040F151FEB015E01AE18BF0887
:10025000C017D10759F06991D601ED91FC91019039
:10026000F081E02DC6010995892B79F7C501DF9151
:10027000CF911F910F91FF90EF90DF90CF90BF90A3
:10028000AF90089590E0FC01E256FE4F2491FC01EE
:10029000E657FE4F3491FC01EA58FE4FE491EE23FD
:1002A000C9F0222339F0233001F1A8F4213019F1EB
:1002B000223029F1F0E0EE0FFF1FE459FE4FA59127
:1002C000B4918FB7F894EC91611126C030953E231C
:1002D0003C938FBF08952730A9F02830C9F024300F
:1002E00049F7809180008F7D03C0809180008F77D7
:1002F00080938000DFCF84B58F7784BDDBCF84B55A
:100300008F7DFBCF8091B0008F778093B000D2CFEC
:100310008091B0008F7DF9CF3E2BDACFCF93DF9362
:1003200090E0FC01E657FE4F24918A589E4FFC0155
:1003300084918823C9F090E0880F991FFC01EE5941
:10034000FE4FA591B491FC01E459FE4FC591D491A3
:1003500061110DC09FB7F8948C91209582238C93E6
:100360008881282328839FBFDF91CF910895623031
:1003700051F49FB7F8943C91822F809583238C93FE
:10038000E8812E2BEFCF8FB7F894EC912E2B2C9386
:100390008FBFEACF089590E080E00895CF93DF9378
:1003A000EC0160E08E810E94420161E08E810E943A
:1003B000420160E08E810E9442018BE891E001974A
:1003C000F1F7DF91CF910895CF92DF92EF92FF92F4
:1003D0000F931F93CF93DF936C017C0187E0E80EAE
:1003E000F11CD0E0C0E0062F10E0B8010C2E02C0D6
:1003F000759567950A94E2F76170F70181917F0125
:100400000E9442012196C430D10579F7C601DF91DF
:10041000CF911F910F91FF90EF90DF90CF900C94B0
:10042000CE01CF92DF92EF92FF920F931F93CF9363
:10043000DF93EC01F62E642F8C810E9442018D81A6
:100440008F3F19F060E00E9442010F2D10E08F8570
:1004500084FF25C06E0187E0C80ED11CF12CE12C71
:10046000B8010E2C02C0759567950A94E2F7617089
:10047000F60181916F010E944201FFEFEF1AFF0A1E
:1004800088E0E816F10461F7CE01DF91CF911F916A
:100490000F91FF90EF90DF90CF900C94CE01B801B8
:1004A00084E0759567958A95E1F7CE010E94E40195
:1004B0006F2DCE01DF91CF911F910F91FF90EF90A3
:1004C000DF90CF900C94E40140E0682F84E391E04A
:1004D0000C941102CF93DF93823029F49091430161
:1004E000986090934301809347011092480180E403
:1004F0008093490180E180934A0180E580934B011C
:1005000061E0809138010E948E01809139018F3F16
:1005100019F061E00E948E0161E080913A010E9431
:100520008E01C4E3D1E09E01245331408091430108
:1005300084FD0BC084E090E021962817390744F42D
:1005400061E08E810E948E01EECF88E090E0F4CFD2
:100550008BE39DE00197F1F760E0809138010E9404
:10056000420160E080913A010E944201809139018C
:100570008F3F19F060E00E9442018091430184FDA9
:1005800039C063E084E391E00E94E401CBE4D6E467
:10059000CE010197F1F763E084E391E00E94E4016A
:1005A0002197F1F763E084E391E00E94E40183E5A1
:1005B00092E00197F1F762E084E391E00E94E401A8
:1005C0008091430180620E94640284E08093440130
:1005D0008CE00E94640281E00E9464028BE39FE150
:1005E0000197F1F782E08093450186E0DF91CF919A
:1005F0000C94640280620E9464028BE496E401978A
:10060000F1F78091430180620E94640283E592E0E9
:100610000197F1F78091430180620E946402D0CF7C
:1006200041E00E94110281E090E00895CF93DF93B2
:10063000EC0188819981009711F00E940D0A1982BE
:1006400018821D821C821B821A82DF91CF9108952D
:100650000F931F93CF93DF93EC01888199810097CB
:1006600059F02A813B812617370730F081E0DF916E
:10067000CF911F910F9108958B016F5F7F4F0E9463
:10068000960A009759F0998388831B830A832C81EB
:100690003D81232B59F7FC011082E8CF80E0E7CFA2
:1006A0001F920F920FB60F9211242F933F938F93A7
:1006B0009F93AF93BF938091290190912A01A091BC
:1006C0002B01B0912C013091280123E0230F2D370D
:1006D00058F50196A11DB11D209328018093290191
:1006E00090932A01A0932B01B0932C0180912401B7
:1006F00090912501A0912601B09127010196A11D9D
:10070000B11D8093240190932501A0932601B093FD
:100710002701BF91AF919F918F913F912F910F90A2
:100720000FBE0F901F90189526E8230F0296A11D6B
:10073000B11DD2CFCF93DF93CDB7DEB7A7970FB65A
:10074000F894DEBF0FBECDBF789484B5826084BDBF
:1007500084B5816084BD85B5826085BD85B58160C5
:1007600085BD80916E00816080936E001092810043
:1007700080918100826080938100809181008160FE
:1007800080938100809180008160809380008091BF
:10079000B10084608093B1008091B000816080934B
:1007A000B00080917A00846080937A0080917A0012
:1007B000826080937A0080917A00816080937A00D1
:1007C00080917A00806880937A001092C10082E064
:1007D0000E946A0260E08EE00E948E0162E080E08A
:1007E0000E948E0161E087E00E948E0110922E012E
:1007F00010922D012FB7F8948091290190912A0130
:10080000A0912B01B0912C012FBF909330018093C8
:100810002F011092320110923101109233018AE0BF
:10082000882E912CA12CB12C90E0C92E90E0D92ECD
:1008300033243394E1E0809147018111E0E0E195B8
:10084000F0E0EC5CFE4F848980680E94640248E01E
:1008500050E062E171E084E391E00E941501E091D3
:100860004701E23008F014C1E150F0E0EC5CFE4FCB
:10087000848980680E9464020091310110913201E4
:100880000115110509F406C160912D0170912E0129
:1008900090E080E00E94EE072B013C01B80190E05F
:1008A00080E00E94EE079B01AC01C301B2010E94EF
:1008B000D7082B013C0120E030E0A9010E94E907A4
:1008C000882309F4E7C0A301920160E070EA8CE09C
:1008D00094E40E94D7081BA21AA21DA21CA21FA268
:1008E0001EA28E010F5F1F4F22E044E00E9494057C
:1008F0007C01009779F0FC0101900020E9F7319725
:100900008F01081B190BB801CE0182960E942803A3
:100910008111C4C0CE0182960E9416031A821982E8
:100920001C821B821E821D8268E070E0CE0101964F
:100930000E9428038111BAC0CE0101960E941603BD
:10094000EAA0FBA0E114F10409F4BBC00EA11FA1B1
:1009500001151105B9F08D819E81080F191FB8018D
:10096000CE0101960E942803882309F4AAC0298198
:100970003A818D819E81B701820F931F0E945C0B8B
:100980001E830D834D815E8169817A8184E391E0CC
:100990000E94150189819A81009711F00E940D0A29
:1009A0008AA19BA1009711F00E940D0A0E940401E8
:1009B000853F91400CF48AC080913301811186C03B
:1009C00061E087E00E944201E1E0809147018111EE
:1009D000E0E0E195F0E0EC5CFE4F8489865F8068A2
:1009E0000E9464028FB7F8944090290150902A0128
:1009F00060902B0170902C018FBF209131013091BC
:100A000032012F5F3F4F30933201209331018091AB
:100A10002F0190913001A201481B590B80912D01AB
:100A200090912E01840F951F90932E0180932D019C
:100A30005092300140922F0150E040E019A28E0107
:100A40000F5D1F4FCA01B901A50194010E94490918
:100A5000605DF80162938F01211531054105510553
:100A600089F7309761F001900020E9F73197AF01E5
:100A7000401B510BB80184E391E00E9415013092B4
:100A80003301C114D10409F4D5CE0E940000D2CEA6
:100A9000E1E0EBCE60E070E0CB011DCF1FA30EA321
:100AA000B7018AA19BA10E945C0B38CF88E090E03F
:100AB0009E838D836BE171E089819A810E945C0B3A
:100AC0003FCFCE0101960E9416035CCF0E94040125
:100AD000843F9140B4F680913301882391F260E025
:100AE00087E00E94420110923301CBCFE4E3F1E0B2
:100AF000138212828AE091E0918380838DE0848367
:100B00008FEF85838CE086838BE087838AE0808704
:100B100089E0818788E08287138614861586168689
:100B2000178681E00C946A02EF920F931F93CF9384
:100B3000DF93E80134E047FD34E1042E000C550B4F
:100B400057FF03C0519541955109E32E022F242FE1
:100B5000AE010E94B205CE01DF91CF911F910F919E
:100B6000EF900895A9E0B0E0E8EBF5E00C94A6085A
:100B70006A01F22EB02E102FFBE3AF2EA01608F460
:100B80001BE31F5F012F27E0AE014F5F5F4F0E9405
:100B90001107BC018981982F9970913009F43FC0E9
:100BA0009BE2E1FC04C09E2D9170E0FC3AC05E2DFA
:100BB0005071E82FE87083FF46C084E0911101C0B6
:100BC00083E0EF2DE81B8F1508F0E0E0D6018E2FB3
:100BD00020E2552351F1992329F0D6019C93C601B7
:100BE00001966C0196012D5F3F4FE2FE24C08EE41A
:100BF000D6018C9391E411969C93119712968C9345
:100C0000D9018E2F90E281111BC0E20FF32FF11D4D
:100C100010828EEF9FEF2996ECE00C94C2089DE2C3
:100C2000C6CF90E2C4CF2D9381508111FCCFCE0E60
:100C3000D11CE0E0D0CF8EE6D6018C9391E6DBCFDD
:100C40009D938150E0CF482F447082FF3DC084E0E7
:100C5000911101C083E08F1510F4EF2DE81BD60130
:100C60008E2F20E2552309F1992329F0D6019C9378
:100C7000C60101966C0196012D5F3F4FE2FE1BC03D
:100C800089E4D6018C938EE411968C93119786E4B7
:100C900012968C93D9018E2F90E2882309F4B5CF58
:100CA0009D938150FACF2D9381508111FCCFCE0EB0
:100CB000D11CE0E0D9CF89E6D6018C938EE611965F
:100CC0008C93119786E6E4CF9B0177FF02C030E05A
:100CD00020E0A1E0B0E0911102C0B0E0A0E0F90195
:100CE0003196AE0FBF1F8B2C912CBB2009F461C035
:100CF0005401EFEFAE1ABE0AAA0DBB1DFA161B0671
:100D000019F014F04F2D4A1B511188C0E3FC59C053
:100D10007601A42FB0E2A1114FC0C40ED11C9923BB
:100D200009F45BC040E0D6011196F60190836D0195
:100D3000552309F448C0012F060F9A81582F50718E
:100D400084FF03C0913309F4015010160CF047C022
:100D5000093008F008E0EEE2FE2E5B01A01AB108AF
:100D600085019194819491082F3F320729F4D6018F
:100D7000FC92F60131966F016217730794F1021726
:100D800013077CF5DB01A21BB30BAA24A394B12C9F
:100D9000AC0EBD1EAA0DBB1D11968C9121503109C0
:100DA000D601119628153905F4F0F60180836D01FE
:100DB000DBCFB12CA12CA0CFF701B1937F01A150C3
:100DC000AACF9111B0CFD601942F50E302C05D930A
:100DD00091509111FCCFC40ED11C40E0ACCF01E08A
:100DE000BACF80E3DBCF6217730731F4963388F410
:100DF000953311F4552369F0F6018083FD01842FAA
:100E000090E2811108C0A40FB11D1C9290E080E017
:100E100002CF81E3F1CF91938150F3CF911183CF32
:100E20008ACF283008F027E03327DA01990F311DE7
:100E300087FD916000966105710539F432602E5F7F
:100E40003D9330E32A95E1F708959F3F30F08038D5
:100E50007105610509F03C5F3C5F3D93913008F0FE
:100E60008068911DDF93CF931F930F93FF92EF92B2
:100E7000192F987F9695E92F96959695E90FFF275C
:100E8000EE53FF4F99273327EE24FF24A701E701F4
:100E900005900894079428F4360FE71EF81E491FA2
:100EA000511D660F771F881F991F0694A1F70590A3
:100EB000079428F4E70EF81E491F561FC11D770F2F
:100EC000881F991F661F0694A1F70590079428F4C0
:100ED000F80E491F561FC71FD11D880F991F661F87
:100EE000771F0694A1F70590079420F4490F561F29
:100EF000C71FD81F990F661F771F881F0694A9F771
:100F000084911095177041F0D695C79557954795E0
:100F1000F794E7941A95C1F7E8E6F0E06894159025
:100F2000159135916591959105907FE27395E11842
:100F3000F10A430B560BC90BD009C0F7E10CF11EA7
:100F4000431F561FC91FD01D7EF4703311F48A95BC
:100F5000E6CFE894015030F0080F0AF4002702179A
:100F600008F4202F2395022F7A3328F079E37D931C
:100F70002A95E9F710C07D932A9589F606949795EE
:100F80006795379517951794E118F10A430B560B9F
:100F9000C90BD00998F023957E9173957A3308F0A8
:100FA00070E37C932013B8F77E9170617D9330F0ED
:100FB000839571E37D9370E32A95E1F71124EF9017
:100FC000FF900F911F91CF91DF91992787FD909509
:100FD00008950E942B0808F481E00895E89409C060
:100FE00097FB3EF490958095709561957F4F8F4F5C
:100FF0009F4F9923A9F0F92F96E9BB279395F69572
:10100000879577956795B795F111F8CFFAF4BB0FEF
:1010100011F460FF1BC06F5F7F4F8F4F9F4F16C053
:10102000882311F096E911C0772321F09EE8872FDD
:10103000762F05C0662371F096E8862F70E060E099
:101040002AF09A95660F771F881FDAF7880F969512
:10105000879597F90895990F0008550FAA0BE0E8B6
:10106000FEEF16161706E807F907C0F0121613066A
:10107000E407F50798F0621B730B840B950B39F4AA
:101080000A2661F0232B242B252B21F408950A2610
:1010900009F4A140A6958FEF811D811D089597F950
:1010A0009F6780E870E060E008959FEF80EC08950E
:1010B00000240A9416161706180609060895002437
:1010C0000A9412161306140605060895092E0394B1
:1010D000000C11F4882352F0BB0F40F4BF2B11F425
:1010E00060FF04C06F5F7F4F8F4F9F4F089557FD84
:1010F0009058440F551F59F05F3F71F04795880F86
:1011000097FB991F61F09F3F79F08795089512161C
:1011100013061406551FF2CF4695F1DF08C01616C8
:1011200017061806991FF1CF869571056105089479
:101130000895E894BB2766277727CB0197F9089590
:101140002F923F924F925F926F927F928F929F92D7
:10115000AF92BF92CF92DF92EF92FF920F931F93C5
:10116000CF93DF93CDB7DEB7CA1BDB0B0FB6F89476
:10117000DEBF0FBECDBF09942A88398848885F84B6
:101180006E847D848C849B84AA84B984C884DF8027
:10119000EE80FD800C811B81AA81B981CE0FD11D0B
:1011A0000FB6F894DEBF0FBECDBFED0108950E94CB
:1011B000EB080C9466080E945F0858F00E945808DB
:1011C00040F029F45F3F29F00C944F0851110C9422
:1011D0009A080C9455080E94770868F39923B1F394
:1011E000552391F3951B550BBB27AA27621773074D
:1011F000840738F09F5F5F4F220F331F441FAA1FE1
:10120000A9F335D00E2E3AF0E0E832D0915050409C
:10121000E695001CCAF72BD0FE2F29D0660F771F4A
:10122000881FBB1F261737074807AB07B0E809F030
:10123000BB0B802DBF01FF2793585F4F3AF09E3FB5
:10124000510578F00C944F080C949A085F3FE4F332
:10125000983ED4F3869577956795B795F7959F5FF8
:10126000C9F7880F911D9695879597F90895E1E044
:10127000660F771F881FBB1F621773078407BA07A3
:1012800020F0621B730B840BBA0BEE1F88F7E095FE
:101290000895A1E21A2EAA1BBB1BFD010DC0AA1FB7
:1012A000BB1FEE1FFF1FA217B307E407F50720F0CF
:1012B000A21BB30BE40BF50B661F771F881F991F4A
:1012C0001A9469F760957095809590959B01AC0193
:1012D000BD01CF010895EE0FFF1F0590F491E02DA1
:1012E00009940F931F93CF93DF938230910510F4ED
:1012F00082E090E0E0914E01F0914F0130E020E07B
:10130000B0E0A0E0309799F42115310509F44AC006
:10131000281B390B24303105D8F58A819B81611552
:10132000710589F1FB0193838283FE0111C0408125
:1013300051810281138148175907E0F04817590776
:1013400099F4109761F012960C93129713961C93D0
:101350003296CF01DF91CF911F910F9108950093A5
:101360004E0110934F01F4CF2115310551F0421772
:10137000530738F0A901DB019A01BD01DF01F80133
:10138000C1CFEF01F9CF90934F0180934E01CDCFA4
:10139000FE01E20FF31F81939193225031093983AB
:1013A0002883D7CF20914C0130914D01232B41F45C
:1013B000209102013091030130934D0120934C01A3
:1013C00020910001309101012115310541F42DB723
:1013D0003EB74091040150910501241B350BE0916B
:1013E0004C01F0914D01E217F307A0F42E1B3F0BC7
:1013F0002817390778F0AC014E5F5F4F2417350787
:1014000048F04E0F5F1F50934D0140934C01819364
:1014100091939FCFF0E0E0E09CCFCF93DF930097D4
:10142000E9F0FC01329713821282A0914E01B09133
:101430004F01ED0130E020E01097A1F420813181CF
:10144000820F931F20914C0130914D0128173907CD
:1014500009F061C0F0934D01E0934C01DF91CF9111
:101460000895EA01CE17DF07E8F54A815B819E0106
:1014700041155105B1F7E901FB83EA83499159917F
:10148000C40FD51FEC17FD0761F48081918102968E
:10149000840F951FE90199838883828193819B83BF
:1014A0008A83F0E0E0E012968D919C91139700976B
:1014B000B9F52D913C911197CD010296820F931FA2
:1014C00020914C0130914D012817390739F630979A
:1014D00051F510924F0110924E01B0934D01A0931F
:1014E0004C01BCCFD383C28340815181840F951FAF
:1014F000C817D90761F44E5F5F4F88819981480F03
:10150000591F518340838A819B8193838283211554
:10151000310509F0B0CFF0934F01E0934E019ECF1B
:10152000FD01DC01C0CF13821282D7CFB0E0A0E072
:10153000ECE9FAE00C94A2088C01009751F4CB017D
:101540000E9471098C01C801CDB7DEB7E0E10C94AF
:10155000BE08FC01E60FF71F9C0122503109E2177B
:10156000F30708F49DC0D901CD91DC911197C617FE
:10157000D70798F0C530D10530F3CE010497861710
:10158000970708F3C61BD70B2297C193D1936D938E
:101590007C93CF010E940D0AD6CF5B01AC1ABD0A25
:1015A0004C018C0E9D1EA0914E01B0914F01512C0B
:1015B000412CF12CE12C109731F580914C01909148
:1015C0004D018815990509F05CC04616570608F0CC
:1015D00058C08091000190910101009741F48DB7AE
:1015E0009EB74091040150910501841B950BE817AB
:1015F000F90708F055C0F0934D01E0934C01F90153
:1016000071836083A0CF8D919C91119712966C90FD
:10161000129713967C901397A815B90559F56C018C
:1016200042E0C40ED11CCA14DB0420F1AC014A19FB
:101630005B09DA011296159780F0628273825183FA
:101640004083D9016D937C93E114F10471F0D701CB
:101650001396FC93EE93129776CF22968C0F9D1FD4
:10166000F90191838083F301EFCFF0934F01E09371
:101670004E0169CF4816590608F42C017D01D301AB
:101680009ACFCB010E9471097C01009749F0AE010D
:10169000B8010E94530BC8010E940D0A870153CF65
:1016A00010E000E050CFFB01DC0102C001900D9280
:1016B00041505040D8F70895FB01DC0101900D9294
:1016C0000020E1F70895F894FFCF0000500180005A
:1016D0000000000010031501CB01CA0150756C73A6
:0E16E00065203A2000506F776572203A200096
:107E0000112484B714BE81FFF0D085E080938100F7
:107E100082E08093C00088E18093C10086E0809377
:107E2000C20080E18093C4008EE0C9D0259A86E02C
:107E300020E33CEF91E0309385002093840096BBD3
:107E4000B09BFECF1D9AA8958150A9F7CC24DD24C4
:107E500088248394B5E0AB2EA1E19A2EF3E0BF2EE7
:107E6000A2D0813461F49FD0082FAFD0023811F036
:107E7000013811F484E001C083E08DD089C08234E0
:107E800011F484E103C0853419F485E0A6D080C0E4
:107E9000853579F488D0E82EFF2485D0082F10E0AE
:107EA000102F00270E291F29000F111F8ED06801E7
:107EB0006FC0863521F484E090D080E0DECF843638
:107EC00009F040C070D06FD0082F6DD080E0C81688
:107ED00080E7D80618F4F601B7BEE895C0E0D1E017
:107EE00062D089930C17E1F7F0E0CF16F0E7DF06D8
:107EF00018F0F601B7BEE89568D007B600FCFDCFD4
:107F0000A601A0E0B1E02C9130E011968C91119780
:107F100090E0982F8827822B932B1296FA010C0160
:107F200087BEE89511244E5F5F4FF1E0A038BF0790
:107F300051F7F601A7BEE89507B600FCFDCF97BE46
:107F4000E89526C08437B1F42ED02DD0F82E2BD052
:107F50003CD0F601EF2C8F010F5F1F4F84911BD097
:107F6000EA94F801C1F70894C11CD11CFA94CF0C13
:107F7000D11C0EC0853739F428D08EE10CD085E9AC
:107F80000AD08FE07ACF813511F488E018D01DD067
:107F900080E101D065CF982F8091C00085FFFCCF94
:107FA0009093C60008958091C00087FFFCCF809118
:107FB000C00084FD01C0A8958091C6000895E0E648
:107FC000F0E098E1908380830895EDDF803219F02E
:107FD00088E0F5DFFFCF84E1DECF1F93182FE3DFCA
:107FE0001150E9F7F2DF1F91089580E0E8DFEE27F6
:047FF000FF270994CA
:027FFE00040479
:00000001FF
